:020000040800F2
:1000000000000220791100081111000813110008E6
:100010001511000817110008191100080000000050
:100020000000000000000000000000001B1100089C
:100030001D110008000000001F1100082111000818
:10004000C9110008C9110008C9110008C911000828
:10005000C9110008C9110008C9110008C911000818
:10006000C9110008C9110008C9110008C911000808
:10007000C9110008C9110008C9110008C9110008F8
:10008000C9110008C9110008C9110008C9110008E8
:10009000C9110008C9110008C9110008C9110008D8
:1000A000C9110008C9110008C9110008C9110008C8
:1000B000C9110008C9110008C9110008C9110008B8
:1000C000C9110008C9110008C9110008C9110008A8
:1000D000C9110008C9110008C9110008C911000898
:1000E000C9110008C9110008C9110008C911000888
:1000F000C9110008C9110008C9110008C911000878
:10010000C9110008C9110008C9110008C911000867
:10011000C9110008C9110008C9110008C911000857
:10012000C9110008C9110008C9110008C911000847
:10013000C9110008C9110008C9110008C911000837
:10014000C9110008C9110008C9110008C911000827
:10015000C9110008C9110008C9110008C911000817
:10016000C9110008C9110008C9110008C911000807
:10017000C9110008C9110008C911000800000000D9
:08018000C9110008C9110008B3
:1001900010B5054C237833B9044B13B10448AFF3C1
:1001A00000800123237010BD8800002000000000A3
:1001B0003046000808B5034B1BB103490348AFF3B1
:1001C000008008BD000000008C00002030460008C0
:1001D000034613F8012B002AFBD1181A0138704787
:1001E00001F0FF01102A2BDB10F0070F08D010F8E8
:1001F000013B013A8B422DD010F0070F42B3F6D1EC
:10020000F0B441EA012141EA014122F007047FF004
:1002100000070023F0E80256083C85EA010586EA5B
:10022000010685FA47F5A3FA87F586FA47F6A5FA97
:1002300087F68EB9EED1F0BC01F0FF0102F00702A3
:1002400032B110F8013B013A83EA010313B1F8D14E
:100250000020704701387047002D06BF354603382F
:10026000073815F0010F07D1013015F4807F02BF68
:10027000013015F4C03F0130F0BC0138704700BFB9
:1002800053B94AB9002908BF00281CBF4FF0FF31FD
:100290004FF0FF3000F074B9ADF1080C6DE904CEF9
:1002A00000F006F8DDF804E0DDE9022304B0704751
:1002B0002DE9F047089D04468E46002B4DD18A4219
:1002C000944669D9B2FA82F252B101FA02F3C2F14C
:1002D000200120FA01F10CFA02FC41EA030E9440DD
:1002E0004FEA1C48210CBEFBF8F61FFA8CF708FBFE
:1002F00016E341EA034306FB07F199420AD91CEBD6
:10030000030306F1FF3080F01F81994240F21C8107
:10031000023E63445B1AA4B2B3FBF8F008FB10334F
:1003200044EA034400FB07F7A7420AD91CEB040484
:1003300000F1FF3380F00A81A74240F20781644454
:10034000023840EA0640E41B00261DB1D4400023D9
:10035000C5E900433146BDE8F0878B4209D9002D3D
:1003600000F0EF800026C5E9000130463146BDE8C7
:10037000F087B3FA83F6002E4AD18B4202D3824231
:1003800000F2F980841A61EB030301209E46002DE0
:10039000E0D0C5E9004EDDE702B9FFDEB2FA82F235
:1003A000002A40F09280A1EB0C014FEA1C471FFA93
:1003B0008CFE0126200CB1FBF7F307FB131140EA7A
:1003C00001410EFB03F0884208D91CEB010103F147
:1003D000FF3802D2884200F2CB804346091AA4B209
:1003E000B1FBF7F007FB101144EA01440EFB00FEDD
:1003F000A64508D91CEB040400F1FF3102D2A64542
:1004000000F2BB800846A4EB0E0440EA03409CE7E0
:10041000C6F12007B34022FA07FC4CEA030C20FA8D
:1004200007F401FA06F31C43F9404FEA1C4900FAAD
:1004300006F3B1FBF9F8200C1FFA8CFE09FB18112A
:1004400040EA014108FB0EF0884202FA06F20BD99D
:100450001CEB010108F1FF3A80F08880884240F2ED
:100460008580A8F102086144091AA4B2B1FBF9F031
:1004700009FB101144EA014100FB0EFE8E4508D92C
:100480001CEB010100F1FF346CD28E456AD90238B1
:10049000614440EA0840A0FB0294A1EB0E01A14296
:1004A000C846A64656D353D05DB1B3EB080261EB04
:1004B0000E0101FA07F722FA06F3F1401F43C5E9DE
:1004C000007100263146BDE8F087C2F12003D84014
:1004D0000CFA02FC21FA03F3914001434FEA1C4756
:1004E0001FFA8CFEB3FBF7F007FB10360B0C43EA48
:1004F000064300FB0EF69E4204FA02F408D91CEBF8
:10050000030300F1FF382FD29E422DD902386344F5
:100510009B1B89B2B3FBF7F607FB163341EA034195
:1005200006FB0EF38B4208D91CEB010106F1FF38E4
:1005300016D28B4214D9023E6144C91A46EA0046DB
:1005400038E72E46284605E70646E3E61846F8E66D
:100550004B45A9D2B9EB020864EB0C0E0138A3E7B6
:100560004646EAE7204694E74046D1E7D0467BE797
:10057000023B614432E7304609E76444023842E70F
:10058000704700BF7047000037B50F4C0F4800F0B0
:1005900091FB25680E48294600F08CFB85F30888FE
:1005A00064680C48214600F085FBA04700230193B6
:1005B000094B5A6C42F480425A645B6C03F48043EA
:1005C0000193019B03B030BD00800008484600083D
:1005D00085460008A446000800380240F8B50446E5
:1005E0000E46154600F032FF4CF2503000F04AFF44
:1005F00025440027361BAC4203D100F039FF3846B2
:10060000F8BD00233119184614F8012B00F062FFE1
:100610000746F0E730B587B00D46044614220021A6
:1006200001A803F08FFB00230B2D00932CD8A4F11D
:100630000C03DBB2F22B27D9FF2C1CD10123019331
:100640000124029400F002FF104B02220592DC60AC
:10065000DA601022DA602022DA604022DA6080223A
:10066000DA60694601A800F0DFFF044600F000FFF1
:10067000204607B030BDC4F10B03DBB29C4294BFEF
:10068000039403930495DBE70424F1E7003C024064
:10069000054B0A4619688B689B07FCD50146642305
:1006A000014801F06DBC00BFC0A7012007B5084B91
:1006B0008DF807001A6893689B07FCD56423012214
:1006C0000DF10701024801F05BFC03B05DF804FB8B
:1006D000C0A7012008B5054800224FF4805101F061
:1006E000D3F8BDE80840012000F0C0BD000402407E
:1006F00008B5054801224FF4805101F0C5F8BDE866
:100700000840012000F0B2BD000402401FB5FF23E5
:100710008DF80E30094B1A6893689B07FCD564234B
:1007200000930DF10F0201230DF10E01034801F0BA
:10073000D5FC9DF80F0005B05DF804FBC0A70120B3
:1007400013B5FFF7D5FF0A24FF20FFF7AFFF013CE9
:10075000FAD1FFF7BFFF40238DF800300621952323
:1007600068468DF801408DF802408DF803408DF801
:1007700004408DF80530FFF78BFF4FF40054FFF76E
:10078000C5FF012801D0013CF9D1FFF7B1FFFF20DF
:10079000FFF78CFF024B01221A7002B010BD00BFA0
:1007A000A500002010B5064C4FF4FA732380FFF724
:1007B000ADFFFF2802D02388002BF8D110BD00BF69
:1007C000A800002070B506460D46FFF7EBFFFF2896
:1007D0004FF0000423D12846FFF768FFFD2D18D005
:1007E0004FF400713046FFF753FFFFF78FFFFFF71D
:1007F0008DFF4125FFF78AFF00F01F03052B0446FC
:1008000003D0013D15F0FF05F4D1FFF77FFF00286D
:10081000FBD004F01F04631F5842584170BD2046AE
:10082000FCE738B504460D46FFF7BCFFFF2828D18A
:100830002046FFF73BFF280EFFF738FFC5F30740C0
:10084000FFF734FFC5F30720FFF730FFE8B2FFF7EB
:100850002DFF402C13D0482C0CBF87200120FFF720
:1008600025FF4C2C01D1FFF751FF0A24FFF74EFF63
:10087000030603D5013C14F0FF04F7D138BD9520E1
:10088000EDE7FF20FAE7000070B50F4DC8230446DE
:100890000E462B80FFF73AFFFF2803D12888002857
:1008A000F8D170BDFE280DD1651E3444FFF72EFF30
:1008B00005F8010FA542F9D1FFF728FFFFF726FF42
:1008C0000120EEE70020ECE7A60000202DE9F3412F
:1008D000002840F09A804E4E357815F0020504D07D
:1008E0003078C0B202B0BDE8F081FFF729FFFFF712
:1008F000F1FE29464020FFF794FF0128044626D147
:10090000444F4FF47A734FF4D57148203B80FFF782
:1009100088FF012849D101ADA8460424FFF7F6FE5F
:10092000013C14F0FF0408F8010BF7D19DF80630E4
:10093000012B0CD19DF80730AA2B08D1002177207C
:10094000FFF76FFF012804D93B88002BF6D1002464
:100950001FE04FF080416920FFF763FF0146002848
:10096000F2D13B88002BF2D07A20FFF75AFF002803
:10097000EDD10424FFF7CAFE013C14F0FF0405F892
:10098000010BF7D19DF8043013F0400F14BF0C2475
:100990000424214B1C70FFF7ABFEFFF7B7FE8CB3AE
:1009A000337803F0FE0333709AE729467720FFF788
:1009B00038FF012806D829466920FFF732FF0128B1
:1009C00098BF0224022C4FF0000119D17720FFF7C5
:1009D00028FF012803D93B88002BF3D1B7E700217A
:1009E0006920FFF71EFF0028F5D13B88002BAED011
:1009F0004FF400715020FFF714FF0028C9D0A6E77C
:100A00004120EEE7054B1C706AE701206AE700BF52
:100A100000000020A6000020A4000020A500002067
:100A200018B9034B1878C0B270470120704700BF57
:100A30000000002070B50E4615461C46002837D130
:100A4000002B35D01C4B1B78DA0733D41B4B1B789B
:100A50005B0758BF6D02FFF73DFE012C294613D1FD
:100A60005120FFF7DEFE38B94FF400713046FFF732
:100A70000BFFB0FA80F46409FFF73AFEFFF746FE79
:100A8000201E18BF012070BD5220FFF7CAFE0028AB
:100A9000F2D14FF400713046FFF7F6FE18B1013C79
:100AA00006F50076F5D100214C20FFF7BAFEE3E70A
:100AB0000420E8E70320E6E700000020A40000206F
:100AC000F8B50D4616461C46002847D1002B45D0E8
:100AD000254B1A78D00743D41B78590742D4234FAB
:100AE0003B785A0758BF7602FFF7F4FD012C13D16B
:100AF00031465820FFF795FE70BBFE212846FFF7D0
:100B000061FEB0FA80F46409FFF7F2FDFFF7FEFD25
:100B1000201E18BF0120F8BD3B789B0707D5002198
:100B20007720FFF77EFE21465720FFF77AFE3146F9
:100B30005920FFF776FE0028E6D1FC212846FFF772
:100B400041FE18B1013C05F50075F6D1FD210020EC
:100B5000FFF738FE0028D7D10124D5E70420DAE7D3
:100B60000320D8E70220D6E700000020A4000020E0
:100B70007FB50E4615460446002840F092800529B0
:100B800013D11378012B09D0022B0AD0002B40F08F
:100B90008880464B1870204604B070BDFFF7D0FD2A
:100BA000F9E7424B1B785370F5E7414B187810F08A
:100BB000010478D1FFF78EFD0D2E68D8DFE806F02E
:100BC0004A07466767676767676767515F62002123
:100BD0004920FFF726FE044628B10124FFF788FDCF
:100BE000FFF794FDD7E710216846FFF74DFE002878
:100BF000F3D09DF800109DF809309DF80820890970
:100C0000012906D1013303EB022292B292022A603B
:100C1000E4E79DF807109DF80A00920902EB8102B3
:100C20009DF80610890201F4406101320A449DF8E2
:100C300005105B0001F00F0101EBD01103F006037A
:100C40000B44073B02FA03F32B60C7E74FF4007332
:100C50002B80C3E7FFF7A6FDB0F1FF0418BF012406
:100C6000BCE700214920FFF7DCFD0028B5D11021A9
:100C70002846FFF709FEB0FA80F46409AEE70021C8
:100C80004A20F0E700217A20FFF7CBFD08B10424C9
:100C9000A4E72C1DFFF73AFD05F8010BAC42F9D192
:100CA000F5E7042477E7032475E700BFA5000020DB
:100CB000000000200FB400B59BB01CAA01A852F898
:100CC000041B009203F05CF801A8FFF781FA64238B
:100CD00082B201A9034801F0B7FB1BB05DF804EB39
:100CE00004B0704718A8012010B594B01422002158
:100CF00009A803F027F81422002103A803F022F822
:100D000000231F4A0193116C41F080511164126C51
:100D100002F080520192019A1A4A0293116841F43A
:100D2000804111601268022402F480420820CDE95B
:100D30000E430292A823CDE91003029A08940121E0
:100D40001022042308A8CDE90B121294139300F08B
:100D5000A1FD08B172B6FEE70F23CDE9033405907B
:100D60004FF4A0524FF48053052103A8CDE9062388
:100D700000F06EFF08B172B6FEE714B010BD00BF00
:100D8000003802400070004080B588B000F042FAA0
:100D9000FFF7AAFF1422002103A802F0D3FF0024CA
:100DA0005F4B00941A6B5F4842F001021A631A6BA2
:100DB00002F001020092009A01941A6B42F00202C2
:100DC0001A631A6B02F002020192019A02941A6BE2
:100DD00042F004021A631B6B03F0040322460293E1
:100DE0004FF48051029B012500F04EFD4E480594C2
:100DF00003A9CDE9035400F067FC4FF48053494840
:100E000003A9CDE90335CDE9054400F05DFC474871
:100E1000474B04614FF4E1370C26C0E90037C0E9C5
:100E20000244C0E90564C46101F0E0FA034608B178
:100E300072B6FEE73F48404AC0E90233C0E90027E6
:100E4000C0E90436C0E9063301F0D0FA08B172B641
:100E5000FEE73A483A4B036000F074FA034608B1E3
:100E600072B6FEE73748384983624FF48272C0E9B0
:100E700000120A244FF40072C0E90233C0E90433BF
:100E8000C0E90623C0E90833C46201F01DF8064634
:100E900008B172B6FEE701F02DFB32462B492C4813
:100EA0002C4E02F059FC307000B1FEE72A4F2B495E
:100EB0002A46384602F07AFC3070E8B9284B294AB5
:100EC0001B682949384602F075FD307040B1274C47
:100ED0002046FFF7EFFE4FF47A7000F0C7F9F7E70E
:100EE00021460220FFF796FBFA6821491E48FFF7CA
:100EF00075FBFFF749FB0AE00B48294600F0BEFCF2
:100F0000012808D11B48FFF7D5FEFFF73BFB12482D
:100F100002F059FEFEE71848FFF7CCFEE9E700BFF4
:100F200000380240000402400000024018A80120DE
:100F3000004400405CA8012000480040B8A7012000
:100F400000300240C0A701200038004005470008DB
:100F500080970120A0A80120B0000020C54600080D
:100F6000AC000020A0860100E0100020CD46000863
:100F700000800008064700084147000882B00C4B7B
:100F8000002100915A6C42F480425A645A6C02F477
:100F900080420092009A01911A6C42F080521A64C9
:100FA0001B6C03F080530193019B02B0704700BF9C
:100FB000003802400268094B9A4282B00BD10023EC
:100FC0000193074B1A6B42F480521A631B6B03F4B4
:100FD00080530193019B02B0704700BF0030024074
:100FE0000038024010B5044688B01422002103A83E
:100FF00002F0A8FE2268144B9A4223D103F5003375
:10100000002101911A6C114842F480421A641A6C52
:1010100002F480420192019A02911A6B42F002029C
:101020001A631B6B03F002030293029B4FF46042AE
:1010300002230321CDE903230523CDE9061303A9E8
:1010400000F042FB08B010BD003800400004024030
:1010500010B514228AB0044600210DEB020002F004
:1010600071FE2368254A934223D1254B002101912B
:101070001A6C42F400321A641A6C02F400320192C3
:10108000019A02911A6B42F001021A631B6B03F082
:10109000010302930C20029B0223CDE905030324E4
:1010A0000723CDE90843174805A900F00DFB0AB056
:1010B00010BD154A9342FAD1114B144800210391F7
:1010C0001A6C42F480221A641A6C02F48022039291
:1010D000039A04911A6B42F004021A631B6B03F02B
:1010E00004030493049B4FF4406202230321CDE9DF
:1010F00005230723CDE9081305A9D6E700440040DE
:101100000038024000000240004800400008024051
:10111000FEE7FEE7FEE7FEE7FEE770477047704731
:1011200000F092B80B4A116810B5034609B90A4994
:101130001160106809490A4C0344091B8B4206D907
:1011400002F0D6FD0C2303604FF0FF3010BD13609A
:10115000FCE700BFA4A8012018AB0120000002207A
:1011600000040000034AD2F8883043F47003C2F848
:101170008830704700ED00E0DFF834D00D480E49AC
:101180000E4A002302E0D458C4500433C4188C42E1
:10119000F9D30B4A0B4C002301E013600432A24246
:1011A000FBD3FFF7DFFF02F0A9FDFFF7EDFD70476E
:1011B000000002200000002088000020284C0008C9
:1011C0008800002018AB0120FEE7000038B50E4A69
:1011D0000E4B054618784FF47A73B3FBF0F31068A2
:1011E000B0FBF3F000F09AF8044658B90F2D09D877
:1011F000024629464FF0FF3000F05EF8044B2046CF
:101200001D6038BD0120FCE704000020080000201C
:101210000C00002008B50B4B1A6842F400721A60EB
:101220001A6842F480621A601A6842F480721A6086
:10123000032000F02FF80F20FFF7C8FFFFF79EFEF6
:10124000002008BD003C0240034A044B11681B7893
:101250000B441360704700BFA8A8012008000020BD
:10126000014B1868704700BFA8A8012038B5044694
:10127000FFF7F6FF631C1CBF054B1B78054618BF24
:10128000E418FFF7EDFF431BA342FAD338BD00BFBC
:10129000080000200749CA6822F4E0620302120431
:1012A00003F4E063120C134343F0BF6343F40033D1
:1012B000CB60704700ED00E0164B30B5DC68C4F33E
:1012C0000224C4F10705231D042D28BF0425062B85
:1012D0004FF0FF338CBF033C002403FA05F521EAED
:1012E0000501A34022EA0302A140002841EA0203CB
:1012F000ACBF00F16040084A4FEA0313B8BF00F0EA
:101300000F00DBB2AABF00F56140135480F8003330
:1013100030BD00BF00ED00E014ED00E00138B0F199
:10132000807F0BD24FF0E023054A5861F02182F80C
:1013300023100020072298611A617047012070472E
:1013400000ED00E010B5044650B1437903F0FF0210
:1013500013B90271FFF72EFE01236371002010BD47
:101360000120FCE7094910B50C6924F440740C61B4
:101370000C6944F440740C610C6944F001040C6184
:101380000260BFF36F8F436010BD00BF003C02409E
:10139000074B1A6922F440721A611A6942F400720A
:1013A0001A611A6942F001021A610160704700BFB8
:1013B000003C0240074B1A6922F440721A611A6914
:1013C00042F480721A611A6942F001021A610180C6
:1013D000704700BF003C02401A4BDA68D20606D5BF
:1013E0001949CA6942F01002CA611022DA60DA684B
:1013F000900606D51449CA6942F00802CA61202243
:10140000DA60104BDA68510606D50F49CA6942F016
:101410000402CA614022DA60DA68120606D50A4977
:10142000CA6942F00202CA618022DA60054AD368C2
:101430009B0706D50449CB6943F02003CB61022307
:10144000D3607047003C0240ACA80120064B1A69EB
:10145000002ABFBF054A5A6002F188325A60BABFFB
:101460001869C00F00207047003C02402301674507
:10147000034A136943F0004313610020704700BF23
:10148000003C0240114B70B500220446DA61FFF7C0
:10149000E7FE0F4D0646EB68DA030CD4EB68DB077A
:1014A00044BF0123EB60E86810F0F20007D0FFF7BB
:1014B00093FF012003E0611CEDD00CB9032070BD47
:1014C000FFF7CEFE801BA042E5D9F7E7ACA80120CC
:1014D000003C0240F7B5204E01931446327E012AAB
:1014E00007460D4635D001224CF250303276FFF7D8
:1014F000C9FFB8B9019BCFB9184B1A6922F44072E1
:101500001A611A691A611A69E4B242F001021A6199
:101510002C704CF25030FFF7B5FF104A136923F0DE
:10152000010313610023337603B0F0BD012F04D112
:10153000A1B22846FFF73EFFEBE7022F04D1214678
:101540002846FFF725FFE4E722462846FFF70AFF73
:10155000DFE70220E8E700BFACA80120003C024022
:10156000074B196921F440711961196941F00401AF
:1015700019611A6942EA002040F48030186170470E
:10158000003C024039B101291CD002290CBF4FF4A4
:1015900000714FF440710D4B1A6922F440721A61C8
:1015A0001A69114319611A6922F0F8021A611A695D
:1015B00042EAC00040F0020018611A6942F4803229
:1015C0001A6170474FF48071E5E700BF003C0240AC
:1015D000144B1A6891050FD51A6822F400721A602C
:1015E0001A6842F400621A601A6822F400621A60F3
:1015F0001A6842F400721A600A4B1A6852050FD535
:101600001A6822F480621A601A6842F480521A60E2
:101610001A6822F480521A601A6842F480621A60D2
:10162000704700BF003C02402DE9F843DFF894808A
:1016300098F81830012B05460F463FD001234CF295
:10164000503088F81830FFF71DFF0446A0B94FF05E
:10165000FF333B602B68012B14D1287CFFF780FF00
:101660004CF25030FFF70EFF154A136923F00403C4
:1016700004461361FFF7ACFF002388F818302046BA
:10168000BDE8F883AE68DFF83890D5E9022313444B
:10169000B342EFD9297C3046FFF774FF4CF250304B
:1016A000FFF7F0FED9F8103023F0FA03C9F8103034
:1016B00010B13E600446DDE70136E6E70224DEE7CE
:1016C000003C0240ACA801202DE9F74FDFF8A891BB
:1016D000674A00230D6801249C4004EA050CAC43D2
:1016E00040F0B1804D6805F003044FEA430803263B
:1016F000671E06FA08F6012F6FEA060634D88768D7
:1017000007EA060ECF6807FA08F747EA0E07876070
:10171000476827EA0C0EC5F300179F4047EA0E07FB
:101720004760C76807EA060E8F6807FA08F747EAB6
:101730000E07022CC76019D14FEAD30A00EB8A0AC0
:1017400003F0070BDAF820704FEA8B0B4FF00F0E07
:101750000EFA0BFE27EA0E0E0F6907FA0BF747EA9F
:101760000E07CAF8207001E0032CDAD1076804FAEA
:1017700008F43E40264315F4403F066063D04FF026
:10178000000ACDF804A0D9F844603A4C46F48046EB
:10179000C9F84460D9F8446006F480460196019E79
:1017A00023F0030606F1804606F59C3603F0030E8F
:1017B000D6F808804FEA8E0E0F2707FA0EF7A042E0
:1017C00028EA070746D004F58064A04244D004F517
:1017D0008064A04242D004F58064A04240D004F569
:1017E0008064A0423ED004F58064A0423CD004F561
:1017F0008064A0423AD004F58064A0420CBF072464
:10180000082404FA0EF43C43B46094686FEA0C06B2
:10181000EF0254BF34404CEA04049460D468AF0231
:1018200054BF34404CEA0404D4605468AF0354BF3E
:1018300034404CEA040454601468ED0354BF34404F
:101840004CEA040414600133102B7FF443AF03B05F
:10185000BDE8F08F5446D4E70124D2E70224D0E754
:101860000324CEE70424CCE70524CAE70624C8E70E
:10187000003C014000000240003802400369194268
:1018800014BF0120002070470AB18161704709042C
:10189000FBE700002DE9F341044640B30368DD0790
:1018A00010D4236898075ED423681A0700F1A0803B
:1018B00023685B0700F1C080A069002840F0288100
:1018C00000202BE08F4B9A6802F00C02042A07D00C
:1018D0009A6802F00C02082A0BD15A68510208D506
:1018E000884B1B689A03DCD56368002BD9D1012093
:1018F00014E06268B2F5803F13D11A6842F4803276
:101900001A60FFF7ADFC7F4E054633689B03C8D4D1
:10191000FFF7A6FC401B6428F7D9032002B0BDE8FE
:10192000F081784DB2F5A02F2B6807D143F48023C6
:101930002B602B6843F480332B60E2E723F4803381
:101940002B602B6823F480232B60002AD9D1FFF76A
:1019500087FC06462B689F03A3D5FFF781FC801BFD
:101960006428F7D9D9E7674B9A6812F00C0F07D0B3
:101970009A6802F00C02082A11D15B685E020ED44C
:10198000604A13689D0702D5E368012BAFD1136845
:10199000216923F0F80343EAC103136084E7E26896
:1019A000594BB2B101221A60FFF75AFC554D064659
:1019B0002B68980707D52B68226923F0F80343EAC0
:1019C000C2032B6070E7FFF74BFC801B0228EFD9A6
:1019D000A3E71A60FFF744FC4A4E054633689907AF
:1019E0007FF562AFFFF73CFC401B0228F6D994E775
:1019F0006269454B82B10122C3F8802EFFF730FCAB
:101A0000404E0546736F9F073FF552AFFFF728FC26
:101A1000401B0228F6D980E7C3F8802EFFF720FC90
:101A2000384E0546736F98077FF542AFFFF718FCF5
:101A3000401B0228F6D970E7324B1A6C12F0805224
:101A400028D101921A6C42F080521A641B6C03F088
:101A500080530193019B01272C4D2B68D9051BD581
:101A6000A368284D012B27D12B6F43F001032B676F
:101A7000FFF7F6FB234E054641F28838336F9B078C
:101A800039D5002F3FF418AF1E4A136C23F0805352
:101A9000136411E70027DFE72B6843F480732B60A2
:101AA000FFF7DEFB06462B68DA05D9D4FFF7D8FB33
:101AB000801B0228F7D930E7052B04D12B6F43F0A8
:101AC00004032B67D0E72A6F22F001022A672A6FEE
:101AD00022F004022A67002BCAD1FFF7C1FB41F2B2
:101AE000883806462B6F9807CBD5FFF7B9FB801BCC
:101AF0004045F7D911E7FFF7B3FB401B4045BDD97F
:101B00000BE700BF00380240000047420070004071
:101B1000364DAB6803F00C03082B3DD0344B00224C
:101B200002281A662BD1FFF79BFB06462B6899010A
:101B30001FD4D4E907321343626A43EA8213E26A8C
:101B400043EA0263A26A5208013A43EA02436B6025
:101B5000274B264D01221A66FFF782FB04462B68AD
:101B60009A013FF5ADAEFFF77BFB001B0228F6D9CB
:101B7000D3E6FFF775FB801B0228D7D9CDE6FFF728
:101B80006FFB04462B689B017FF59AAEFFF768FB5D
:101B9000001B0228F6D9C0E601283FF4BFAE6B68EF
:101BA000E26903F4800191427FF4A1AE216A03F05F
:101BB0003F028A427FF49BAE616A47F6C0721A40C8
:101BC000B2EB811F7FF493AEA26A520803F4403156
:101BD000013AB1EB024F7FF48AAEE26A03F0706320
:101BE000B3EB026F3FF46CAE81E600BF00380240F9
:101BF00000004742134908B58B6803F00C03042B1F
:101C00001CD0082B1CD14A684B68496813F4800328
:101C100014BF0D480D48C1F3881118BF002302F00E
:101C20003F02A1FB0001FEF72BFB064B5B68C3F3F1
:101C3000014301335B00B0FBF3F008BD0248FCE751
:101C40000248FAE70038024040787D010024F400A1
:101C50002DE9F0410D46044610B90120BDE8F081A0
:101C6000444B1A6802F007028A4228D32268970779
:101C70002DD4D00741D43F4B1A6802F00702AA4284
:101C800066D8226851076CD4130707D53A4A2169F0
:101C9000936823F4604343EAC1039360FFF7AAFF0C
:101CA000354B364A9B68C3F30313D35CD840344B9F
:101CB0001860344B1868FFF789FA0020CEE7CAB2E3
:101CC0001A701B6803F007038B42C6D1CEE72A4B7C
:101CD00012F0040F1EBF996841F4E0519960160795
:101CE00042BF996841F4604199602349A0688B68BC
:101CF00023F0F00303438B60BBE762681E4B012AAD
:101D00001CD11B6813F4003FA7D01B4EB36823F00F
:101D100003031343B360FFF7A3FA41F28838074681
:101D2000B368626803F00C03B3EB820FA3D0FFF734
:101D300097FAC01B4045F3D903208FE7911E012974
:101D40001B6802D813F0007FDEE713F0020FDBE719
:101D5000EAB21A701B6803F00703AB427FF47DAF51
:101D60008FE70549E0688B6823F4E05303438B60F9
:101D70008AE700BF003C0240003802407F4700086D
:101D8000040000200C000020044B054A9B68C3F3AC
:101D90008223D35C034A1068D84070470038024061
:101DA0008F47000804000020044B054A9B68C3F3DA
:101DB0004233D35C034A1068D84070470038024071
:101DC0008F470008040000202DE9F3411D46174607
:101DD00088460646FFF744FA3D442C1AFFF740FABE
:101DE000224B1B68C3F3CB33054663433268019330
:101DF000936838EA030301D000202DE07B1CF7D064
:101E0000FFF72EFA401BA04229D333685A6822F00C
:101E1000E0025A607268B2F5827F0AD1B268B2F508
:101E2000004F02D0B2F5806F03D11A6822F0400251
:101E30001A60B26AB2F5005F07D11A6822F4005244
:101E40001A601A6842F400521A60012386F8513071
:101E5000002386F85030032002B0BDE8F081019BDA
:101E6000002B019B08BF0024013BBFE704000020BA
:101E700037B51346124A1568124AB5FBF2F54FF40E
:101E80007A72554342680195B2F5827F04460BD1C0
:101E90000A468021FFF798FF78B1636D43F0200375
:101EA0006365032003B030BD019B33B1019B013B4F
:101EB000019323689B681B06F6D40020F2E700BF5D
:101EC0000400002000366E0110B50446002855D0ED
:101ED000436A002B4ED14268B2F5827F00D0C361C5
:101EE0000023A36294F8513003F0FF0223B984F871
:101EF00050202046FFF776F82168A068A2690223E7
:101F000084F851300B6823F040030B60636800F4E1
:101F1000044003F482730343E06800F40060034369
:101F2000206900F002000343606900F001000343F0
:101F300002F400700343E06900F038000343206AB4
:101F400000F080000343A06A00F4005003430B60DC
:101F5000636A120C03F0100302F004021A434A6091
:101F6000CB6923F40063CB6100200123606584F812
:101F7000513010BD0023C0E90433B1E70120F8E778
:101F80002DE9F3411E4690F85030012B04460D46D2
:101F9000174600F0A180012380F85030FFF760F968
:101FA00094F85130012B8046D8B240F09380002D38
:101FB0005ED0002F5CD0A2682563032384F85130E3
:101FC000B2F5004F4FF000036365C4E91033E786B4
:101FD000A363A387E387A786236807D11A6822F043
:101FE00040021A601A6842F480421A601A68E16876
:101FF00052065EBF1A6842F040021A60B1F5006FE7
:10200000626841D10AB1012F07D135F8022BDA609D
:102010002563E38E013B9BB2E386E38E9BB2A3B9BB
:10202000424631462046FFF723FF00284FD1A368E0
:1020300033B901932368DA6801929B680193019B8D
:10204000606D003818BF012012E02268936898077D
:1020500005D5236B33F8021BD1602363D9E7FFF763
:10206000FFF8A0EB0800B0420BD3711CD5D00320C1
:10207000012384F85130002384F8503002B0BDE8C9
:10208000F081002EC9D1F2E70AB1012F08D12A78D8
:102090001A73236B01332363E38E013B9BB2E38608
:1020A000E38E9BB2002BBBD023689A68920702D5BF
:1020B000226B1278ECE7FFF7D3F8A0EB0800B042F0
:1020C00002D3731CECD0D2E7002EE9D1CFE7202356
:1020D0006365ACE70220CBE70220CFE72DE9F743A9
:1020E0001E4690F850300A9F012B04460D4691463B
:1020F00000F0E680012380F85030FFF7B1F894F843
:1021000051306268012B8046D9B20AD0B2F5827F85
:1021100040F0D480A368002B40F0D080042940F028
:10212000CD80002D40D0B9F1000F3DD0002E3BD026
:1021300094F85130C4F83890042B1CBF052384F860
:10214000513000236365C4E910332368E687E686CF
:102150001968A687490658BF1968256358BF41F01A
:102160004001A68658BF1960E168B1F5006F52D1F1
:102170000AB1012E07D135F8022BDA60E38E256310
:10218000013B9BB2E3860125E38E9BB273B9E38FDB
:102190009BB25BB9424639462046FFF769FE0028EC
:1021A00000F081802023636501202BE021688B688B
:1021B0009E070DD5E38E9BB253B14DB1236B33F81F
:1021C000022BCA602363E38E013B9BB2E3860025AA
:1021D0008A6812F001020CD0E38F9BB24BB1A36B63
:1021E000C96823F8021BA363E38F013B9BB2E3871B
:1021F0001546FFF735F8A0EB0800B842C4D3781CA9
:10220000C2D00320012384F85130002384F85030D9
:1022100003B0BDE8F0830AB1012E08D12A781A7301
:10222000236B01332363E38E013B9BB2E3860125DD
:102230002DE02268936899070ED5E38E9BB25BB1BF
:1022400055B1236B1B781373236B01332363E38E28
:10225000013B9BB2E38600252268916811F00101E1
:102260000DD0E38F9BB253B1A36BD2681A70A36BEE
:102270000133A363E38F013B9BB2E3870D46FEF777
:10228000EFFFA0EB0800B8420AD37B1CB9D1E38E64
:102290009BB2002BCDD1E38F9BB2002BC9D179E744
:1022A000002FF4D1ADE7A368002BABD123680190D8
:1022B000DA6801929B680193019BA3E70220A1E7E2
:1022C0000220A5E70268C168136923F440530B4359
:1022D00070B51361054683680069D1680343686976
:1022E0000343E86921F4164121F00C0103430B4339
:1022F000D3605369A96923F440730B4353611F4BA7
:102300009A4203D003F580639A4223D1FFF74CFD34
:10231000EB691921B3F5004FD5E90046A0FB010197
:102320001BD1B2194FF000035B41FDF7A9FF6421F7
:10233000B0FBF1F501FB1503DB003233B3FBF1F326
:1023400003F007025B0002EB051203F4F873134479
:10235000A36070BDFFF718FDDAE7B200B30FFDF719
:102360008FFF6422B0FBF2F102FB11031B01323339
:10237000B3FBF2F303EB0113EAE700BF00100140E7
:10238000F8B504460E4617461D462268136836EA1D
:10239000030301D1002028E06B1CF7D025B1FEF724
:1023A0005FFFC01B8542F0D2226802F10C0353E8A4
:1023B000003F23F4D0730C3242E80030216800283B
:1023C000F2D101F1140353E8003F23F0010301F1BE
:1023D000140040E80032002AF3D1202384F83D3075
:1023E00084F83C2084F83E300320F8BD10B5044644
:1023F00040B390F83D3003F0FF021BB980F83C2059
:10240000FEF726FE2268242384F83D30D36823F4A7
:102410000053D3602046FFF755FF23681A6922F462
:1024200090421A615A6922F02A025A61DA6842F42B
:102430000052DA6000202023206484F83D3084F8C4
:102440003E3010BD0120FCE7F7B5174690F83D205F
:102450000093202A04460E4649D1002945D0002F7A
:1024600043D090F83C20012A41D0012280F83C2042
:1024700000252122056480F83D20FEF7F1FEA168C9
:10248000009BA784B1F5805F0246E78403D12169F0
:1024900009B935460E46002184F83C10E18C89B21A
:1024A00041B940212046FFF76BFF60B9202384F833
:1024B0003D3009E080212046CDE90023FFF760FF91
:1024C000DDE9002310B1032003B0F0BD20684EB950
:1024D00035F8021BC1F308014160E18C013989B272
:1024E000E184DBE716F8011BF6E70120ECE70220A8
:1024F000EAE7000008B50349034801F095FB034BE8
:10250000187008BDCCA8012010000020D0A8012020
:102510000020704708B5FEF7D9F9C0B208BD08B56C
:10252000FEF77EFAC0B208BD08B5FEF783FAC0B266
:1025300008BD08B5FEF7C4FAC0B208BD08B5FEF77D
:1025400017FBC0B208BD0000034B1A1803EB800351
:10255000107A5B685B681847FCAA0120064B1A5C7E
:1025600042B901221A541A1803EB8003107A5B68EF
:102570001B68184700207047FCAA012030B4054CA6
:10258000251804EB800460688468287AA44630BC6F
:10259000604700BFFCAA012030B4054C251804EBAD
:1025A00080046068C468287AA44630BC604700BFD5
:1025B000FCAA0120054B10B41C1803EB8003207A01
:1025C0005B685DF8044B1B69184700BFFCAA01203B
:1025D000006870470B0A017043700B0C090E837082
:1025E000C1707047024400F8011B9042FBD1704754
:1025F0001B4A136830B563B104689C4207D1546824
:1026000083689C4203D1946843699C4220D0002493
:1026100000E001241369CBB10568AB4207D15569CD
:1026200083689D4203D1956943699D4215D06CB979
:1026300002290CBF0020122030BD02EB03139B893E
:10264000B3F5807F14BF00201020F5E70020F3E7EA
:1026500000230029F1D01020EEE70123F9E700BFA5
:10266000D8A801201F4AF0B5136806689E4207D11A
:1026700055688468A54203D145699468A54222D073
:102680001469B44207D157698568AF4203D197698D
:102690004569AF4221D00BB10CBB01231D0102EBF8
:1026A0000314565185684069A06000206560A081D0
:1026B00081B902EB03118989013189B202EB03125E
:1026C000581C9181F0BD00230029F2D002EB0311C8
:1026D000898921B94FF48071F0E70123F4E70020E4
:1026E000F0E700BFD8A801200138012815D80C4A0E
:1026F000010102EB00108389B3F5807F04D1002330
:102700008381002050507047002BFAD0013B9BB2D0
:102710008381002BF5D0002070470220704700BF56
:10272000D8A80120054B1A68904204BF00221A6005
:102730001A69904204BF00221A617047D8A801208C
:10274000C3690239023B8B4283BF4389006B01FBA3
:10275000030000207047C36A0268043390895289DD
:10276000B1FBF0F1B1FBF2F1186830B1814202D354
:10277000091A0833F8E7586808447047C2F307237A
:102780008A76CB760378032B01BF120C0A75120AE6
:102790004A75704700F10B010022D30143EA52034E
:1027A00010F8012B52FA83F38842DAB2F5D11046C1
:1027B0007047026810B552B111460B4611F8014B33
:1027C0001F2C0CD93A2CF8D1511C8B4202D04FF05F
:1027D000FF3005E01278302AF9D101330360002080
:1027E00010BD38B50D46044618B9092000232B60EA
:1027F00038BD0368002BF8D01A78002AF5D08188FC
:10280000DA889142F1D15878FFF79EFE10F001006E
:10281000EBD12368EBE701380A4411F8013B00F8DB
:10282000013F9142F9D170472DE9F041466B00F12B
:10283000380804460123407832464146FFF7ACFE93
:102840000546A8B9A36A226AE070F31A934202D23D
:10285000A778012F02D82846BDE8F081236A607866
:102860001E44324601234146FFF796FE013FF0E742
:102870000125F0E7C3780BB1FFF7D6BF18467047C4
:1028800038B5436B8B4205460C4610D0FFF7F2FF7C
:1028900060B922466878012305F13801FFF76EFE22
:1028A00000281CBF4FF0FF3401206C6338BD0020AE
:1028B000FCE70000002310B5C3704FF0FF33436303
:1028C0000446FFF7DDFF034618BBB4F836124AF69C
:1028D000552291421FD194F83820E92A05D0A26BE5
:1028E0000F4902F0FF128A4217D104F16E00FFF780
:1028F0006FFE0C4A20F07F40904208D004F18A001D
:10290000FFF766FE02F14C52904218BF02231846B0
:1029100010BD0423FBE70323F9E70223F7E700BF19
:10292000EB009000464154002DE9F043002385B0B0
:102930000B600F461546FFF73CFF061EC0F23481C0
:102940009C4B53F82640002C00F030813C602378EB
:1029500005F0FE056BB16078FFF7F6FDC10708D4FE
:102960001DB110F0040500D00A25284605B0BDE8C9
:10297000F0830023F0B223706070FFF7EFFDC20711
:1029800000F116810DB14307EED4607804F10C021A
:102990000221FFF70FFE054608B10125E5E7A389EF
:1029A000A3F50072B2F5606FF7D85A1E1A42F4D13F
:1029B00001462046FFF77EFF022840F0D8806E4691
:1029C00004F5FF7304F23E21324613F8040C10B1F3
:1029D0001846FFF7FDFD10338B4242F8040BF4D18B
:1029E0004FF0000856F8047B002F00F0B6803946FF
:1029F0002046FFF75FFF012800F2B080B4F80C908A
:102A0000B4F843304B4540F0B780B4F84E1021B9CC
:102A100004F15C00FFF7DCFD014694F848302162C8
:102A20005A1E012AA37000F2A78094F845606681BF
:102A3000002E00F0A180721E324240F09D80B4F85A
:102A40004980A4F808804FEA5910B8FBF0F200FB67
:102A5000128080B2002840F08F80B4F84B0018B983
:102A600004F15800FFF7B4FDB4F846C0BCF1000F04
:102A700000F0828001FB03FE6244724490427BD3EB
:102A8000801AB042B0FBF6F376D34FF6F57083426E
:102A900076D840F6F576B3428CBF02260126023383
:102AA0000CEB07003A44032EE3616762A0622263E5
:102AB00068D1B4F8622052EA08025DD104F16400E2
:102AC000FFF786FD9B00E06209F1FF321344B3FB80
:102AD000F9F9894550D84FF0FF33C4E90533032E87
:102AE0004FF0800323712BD1B4F86830012B27D12C
:102AF000791C2046FFF7C4FE10BBB4F836222071C3
:102B00004AF655239A421BD104F13800FFF760FDC5
:102B1000294B984214D104F50770FFF759FD03F1D2
:102B2000FF5303F500532033984209D104F5087090
:102B3000FFF74EFDA06104F50970FFF749FD6061E4
:102B40001E4A2670138801339BB21380E3801C4B0E
:102B500023612046FFF7E6FD07E7032008F101089F
:102B6000B8F1040F7FF43EAF042805D115E704281F
:102B70003FF413AF012801D90D25F6E62F463DE7B6
:102B800003268CE7B8F1000FF6D0022E4FEA43027D
:102B900018BFD218704418BF03F00103E0620CBFE5
:102BA000134603EB52038FE70B25DEE60C25DCE62C
:102BB0000325DAE6D4A8012052526141F8A8012089
:102BC000FAA8012001292DE9F04705460C461746D1
:102BD00040F28B80C3698B4240F287800378022BDE
:102BE00049D0032B60D0012B7FD101EB5108816AC2
:102BF0008389B8FBF3F31944FFF742FE064678BB1E
:102C0000AB89B8FBF3F205F1380A08F1010903FBBF
:102C1000128814F001041FBF1AF8083003F00F02E5
:102C20003B0103F0F00314BF1343FBB20AF8083072
:102C3000A96A0123EB702846AB89B9FBF3F3194469
:102C4000FFF71EFE064658B9AB89B9FBF3F203FB4A
:102C5000129944B1C7F307170AF809700123EB7002
:102C60003046BDE8F0871AF80930C7F3032723F090
:102C70000F031F43F0E783895B08B1FBF3F3816A1D
:102C80001944FFF7FDFD06460028E9D1A989640033
:102C900005F13803B4FBF1F201FB124418191F557A
:102CA000C7F307274770D9E783899B08B1FBF3F384
:102CB000816A1944FFF7E4FD06460028D0D1A989AE
:102CC000A40005F13803B4FBF1F201FB12441C44EB
:102CD0002046FFF77DFC27F0704700F0704047EA80
:102CE00000012046FFF776FCB8E70226B8E7F8B502
:102CF0000446FFF7BFFD0546002841D12378032B8A
:102D000036D12779012F33D104F138060146A28943
:102D100030465523FFF766FC84F83632AA2384F840
:102D2000373252234122722184F8383084F8393006
:102D3000612384F83A3084F81F3284F83B2084F809
:102D40001C1284F81D1284F81E22A16904F5087073
:102D5000FFF740FC616904F50970FFF73BFC626A0C
:102D60006078013262633B463146FFF715FC2571FE
:102D7000002260781146FFF71DFC003818BF0120C3
:102D8000F8BD03284B8B04BF8A8A43EA02431846E6
:102D900070470129F8B507460C4663D9C3699942C3
:102DA00060D20378022B32D0032B43D0012B59D1B0
:102DB00001EB5105816A8389B5FBF3F31944FFF7F1
:102DC0005FFD10B14FF0FF30F8BDB989B5FBF1F3ED
:102DD0006E1C01FB1355BB6AB6FBF1F13D4419446F
:102DE000384695F83850FFF74BFD0028EAD1B889EE
:102DF000B6FBF0F300FB1366B819E30790F8380050
:102E000045EA00204CBF0009C0F30B00DCE78389D2
:102E10005B08B1FBF3F3816A1944FFF731FD002829
:102E2000D0D1B8896400B4FBF0F100FB114438192B
:102E3000008FC9E783899B08B1FBF3F3816A1944CA
:102E4000FFF71EFD0028BDD1B989A40007F13800A5
:102E5000B4FBF1F301FB13442044FFF7B9FB20F06E
:102E60007040B1E70120AFE773B50C46012C05684F
:102E7000064611462CD9EB69A34229D92AB14FF055
:102E8000FF322846FFF79EFE40B921463068019484
:102E9000FFF77FFF0199044610B9002002B070BD12
:102EA000012815D0431C15D000222846FFF78AFEC2
:102EB0000028F3D1D5E90632911E8B4205D20133A9
:102EC000AB612B7943F001032B71A242DDD8E4E71B
:102ED0000220E3E70120E1E72DE9F04105688046A3
:102EE0000F4671B96E69EEB1EB69B34298BF012626
:102EF0003446EB690134A34217D8012E14D80024BC
:102F000006E02846FFF745FF0128044603D80124C0
:102F10002046BDE8F081431C30D0EB698342F7D8EE
:102F20003E46E5E70126E3E70224D8F80000214603
:102F3000FFF72FFF30B10128E9D001301ED0B44295
:102F4000D7D1DCE74FF0FF3221462846FFF73AFEA3
:102F500090B957B9D5E90632023A93426C6110D95B
:102F60002B7943F001032B71D2E7224639462846DC
:102F7000FFF728FE0028EDD00128C8D14FF0FF341C
:102F8000C6E7013BAB61EBE7B1F5001FF8B50646BC
:102F90000D4601D30220F8BDCA06FBD18268046841
:102FA0004161DAB92378022B01D9E36AABB92389ED
:102FB000B3EB551FEED9E36AF361F369B261002BFD
:102FC000E8D0A289B5FBF2F1383402FB11550B446D
:102FD0002C44F36134620020DDE71A466789A38937
:102FE0005F43BD42114604D22046FFF7A9FBF061C2
:102FF000E3E73068FFF7CDFE431C024606D0012808
:10300000C8D9E3698342C5D9ED1BEAE70120C2E7CD
:103010002DE9F8434769C369054689462037A3B1BE
:10302000B7F5001F11D20468A289B7FBF2F002FBCA
:103030001072002A4FD1A9690133EB6139B9238994
:10304000B3EB571F47D80023EB6104200DE0B4F821
:103050000A8008F1FF3818EA00083CD12046FFF743
:1030600098FE0128064602D80220BDE8F883421CDB
:1030700001D10120F9E7E369834226D8B9F1000FB5
:10308000E1D0A9692846FFF727FF064600283BD074
:103090000128E9D0431CECD02046FFF7EBFB0146AA
:1030A0000028E6D104F13800A289FFF79BFA3146E7
:1030B0002046FFF745FB4FF001096063638998459F
:1030C00015D3636BA3EB08036363AE6131462046FF
:1030D000FFF736FBE861A2896F6104F13803B7FBA3
:1030E000F2F102FB11771F442F620020BDE784F844
:1030F00003902046FFF798FB0028BAD1636B013399
:1031000008F101086363D9E70720AEE72DE9F04F26
:10311000002185B0D0F800B00446FFF735FF064621
:10312000002840F098804FF0FF3A4FF0FF08C4F8B5
:1031300030A0C146E1695846FFF7A2FB06460028C9
:1031400040F08980256A2F78002F00F08880EA7A85
:10315000E52F02F03F03A37103D0100704D50F2B16
:1031600004D0C4F830A050E00F2B56D194F82F3083
:10317000590640D47A0646D5636995F80D802363D5
:1031800007F0BF076B7B43453FD16B8B002B3CD1D6
:103190002E78DBF81030009306F03F06013E0D2339
:1031A000DFF8C4905E43012219F8013BEB5A7AB371
:1031B000FE2E2AD81846039300F058FD009B02907B
:1031C000711C33F81600019100F050FD029A824202
:1031D0001BD1039B01991A460E46224B9945E3D118
:1031E0002B785B0604D51AB1009B33F8163063B90F
:1031F000013F5FFA87F900212046FFF709FF0646E5
:10320000002897D027E0B945BCD04FF0FF09F2E77E
:103210004FF6FF718B42E0D0F7E7B9F1000F04D110
:103220002846FFF7B7FA404515D094F82F6016F0FE
:10323000010696D104F1240205F10B0115F8013BBA
:1032400012F8010B8D42A3EB000302D0002BF5D046
:1032500087E7002B85D1304605B0BDE8F08F042606
:10326000F9E700BF34480008274800082DE9F04F6F
:1032700090F82F5015F0A00589B0044640F09080DA
:103280000668326932F81530002B67D104F1240743
:103290000C22394605A8FFF7BEFA9DF81F30DB0760
:1032A00040F187804023DFF8408284F82F304FF0D0
:1032B000010A0B2205A93846D6F81090FFF7ABFAA1
:1032C000BAF1050F5BD9A9F10201534631F8022F7B
:1032D000002A45D10DF11300072203F00F0C0CF169
:1032E0003001392988BF0CF137010F2B00F8011983
:1032F00002F1FF324FEA131143D802F120036B446D
:103300007E2103F8141C394600239A4205D011F897
:10331000010B202803F1010C35D104F12300072A09
:103320009CBF02F12001694403F1010396BF11F82B
:10333000141C20210132072BC154F0D92046FFF77D
:10334000E5FE814678BB0AF1010ABAF1640FB0D1FB
:103350004FF00709484609B0BDE8F08F013591E705
:10336000102002F0010C0CEB430313F4803F18BF54
:1033700083EA080301384FEA5202F2D1A6E7534626
:10338000A8E70B46A9E76346BFE780460121204630
:10339000FFF73EFE814610B3B9F1040FD8D0D9E74C
:1033A0004FF00609D6E70428D4D19DF81F3084F8E1
:1033B0002F309DF81F30D4F800A09B0748BF0C3574
:1033C0004FF00001204649BF0D230125B5FBF3F561
:1033D0000135FFF7D9FD81460028DDD18046E1693E
:1033E0005046FFF74DFA81460028D5D1236A1B7855
:1033F000E52B01D0002BC8D108F101084545C5D106
:10340000013D55D061692046A1EB4511FFF7BCFD98
:10341000814600289ED13846FFF7BCF94FF6FF7869
:103420000190E1693046FFF72BFA8146002891D1DF
:10343000236A019AD6F810E05A73E9B24FF00F02EE
:103440004FF00D0CDA72DFF8A4A018734A1E0CFBC3
:1034500002F29876D87684461AF8019B404518BF48
:103460003EF8120003F8090003EB090B0CF1010C04
:1034700018BF01324FEA1029002808BF4046BCF1AE
:103480000D0F8BF80190E7D1404502D03EF8122095
:103490000AB941F0400119700123F3700021204660
:1034A000FFF7B6FD814600287FF454AF013DB8D147
:1034B000E1693046FFF7E4F9814600287FF44AAF1E
:1034C00001462022206AFFF78DF80B22206A394638
:1034D000FFF7A1F994F82F30226A03F01803137351
:1034E0000123F37036E700BF2110010027480008D0
:1034F0002DE9F74FD0F800B00646894611F8013B98
:103500002F2BFAD05C2BF8D00021B16099F8003055
:103510001F2B00F2B3808023304686F82F3003B093
:10352000BDE8F04FFFF730BD0134BBE0B4F5807F5C
:1035300000930CD0012100F07BFB40B17F28009B61
:1035400007D8824911F8012B1AB19042FAD106200E
:103550004DE028F8020F274699E035F81730202B68
:1035600002D02E2B40F0AE80013FA8E00131B6E042
:10357000434505D2BA4249D1B8F10B0F3FD102E021
:10358000B8F10B0F36D144F003044FF00B0896F856
:103590002430E52B04BF052386F82430B8F1080F4A
:1035A00004BFAD00EDB205F00C030C2B03D005F009
:1035B0000302032A01D144F00204A10709D405F053
:1035C0000305012D08BF44F01004042B08BF44F08C
:1035D000080486F82F403046FFF798FD96F82F3004
:1035E000C0B3042803D113F0040F08BF052003B0B3
:1035F000BDE8F08FBA4202D044F00304C7D8AD0052
:10360000EDB23A464FF00B0808238DE07F280ED923
:103610000021CDE9002300F00BFB44F00204DDE9BA
:10362000002360B14A49084410F8800C38B1DFF833
:1036300024C11CF8011B00297AD08142F9D144F041
:1036400003045F20F118013381F824006CE045F099
:103650000205F7E75A07CAD4B379DB0666D5BBF88B
:103660000C207169B1FBF2F00BF1380302FB101171
:1036700019449BF80000FFF784FBB0603368D3F86F
:1036800010A0AAF1020509F1FF33A846002713F89C
:10369000010F1F2807F101040CD92F2802D05C2844
:1036A0007FF444AF19F804302F2B3FF43DAF5C2B6F
:1036B0003FF43AAF2028A14434BF04240024002F53
:1036C0007FF44BAF00232AF81730002F3FF43FAFB1
:1036D00020210B2206F12400FEF784FF19463AF858
:1036E0001130202B3FF442AF2E2B3FF43FAF09B1F6
:1036F00044F0030435F817302E2B01D0013FF9D1E7
:1037000000234FF008081D463AF811004A1C002813
:103710003FF43DAF202805D02E287FF429AFBA42D0
:103720003FF42AAF44F003041146EDE705205EE7BD
:10373000A0F1410119298AD9A0F1610119299EBF7F
:10374000203845F0010580B27CE700BF97470008AC
:10375000A7470008A047000830B585B0CDE90010A4
:1037600003A803911446FFF724F8011E17DB0E4D42
:1037700055F8210018B1FEF7D5FF0023037001981A
:1037800008B10023037045F8210030B1012C08D1A5
:10379000002201A96846FFF7C7F805B030BD0B202D
:1037A000FBE70020F9E700BFD4A801202DE9F04194
:1037B00090B0174601910446002800F0F78002F00F
:1037C0003F052A4602A901A8FFF7AEF806460028E1
:1037D0005CD1029B0199039303A8FFF789FE58B9B6
:1037E0009DF93B30002B58DB15F03E0F14BF012133
:1037F000002103A8FEF7FCFE17F01C0F6DD0002877
:103800004DD0042842D16A4B1A681AB11B69002BAB
:1038100040F0C68003A8FFF729FD002836D145F007
:103820000805FEF775FE014600900B980E30FEF776
:10383000D1FE0B9800991630FEF7CCFE0B9BDDF8FD
:1038400008802022DA720B9998F80000FFF799FAA5
:10385000002207464046FEF791FF0B9B00221A7795
:103860005A779A77DA77029B0121D97007B33946E4
:1038700003A8D3F83480FFF7F7FA38B90298414625
:10388000FEF7FEFF029B013F5F6188B100232360CA
:103890000646304610B0BDE8F0810620ACE79DF842
:1038A000123013F0110F22D17B077BD43F07B8D41D
:1038B000029B28075B6B636248BF45F0400515F02B
:1038C000FE0F0B9BA36214BF0121002103A8FEF78A
:1038D000C9FE206168B90220D8E70028D6D19DF83A
:1038E0001230D80660D4BA07E2D5DF07E0D507204A
:1038F000CCE7029F0B993878FFF743FAA06001F1FB
:103900001C00FEF765FE0021FB88276004F13007EC
:10391000E0604FF48052E162A380257561752162F9
:10392000A1613846FEF75EFEAA06B2D5E568002D15
:10393000AFD0029BA168B3F80A809B89A56103FB05
:1039400008F8A8451ED30020E16100289ED1DDF8CB
:103950000880B8F80C30B5FBF3F203FB1255002DCC
:1039600097D04046FEF7ECFE0028B4D00244226215
:1039700098F8010001233946FEF700FE002888D0A0
:10398000012083E72068FFF704FA01280146A5EB30
:10399000080503D9431CD4D10120D5E70220D3E781
:1039A000122073E7082071E704206FE7092670E70B
:1039B000D8A801202DE9F04F87B016460193019A4F
:1039C00000238946136005A90446FEF70AFF054651
:1039D00038BB657D2DBB237D13F00103029300F0FE
:1039E000A780E268A369D21A964228BF164604F15E
:1039F000300BB6B10598A1698389B1FBF3F203FBE3
:103A00001213002B40F08180B0F80A8008F1FF38D3
:103A100018EA02081BD141B9A068012810D8022574
:103A20006575284607B0BDE8F08FE36A1BB12046F4
:103A3000FEF791FEF1E7E1692068FFF7AAF9ECE7EC
:103A4000431C03D10123029D6375EAE7E061DDF8C1
:103A500014A0E1695046FEF773FE0028DFD0BAF8E3
:103A60000C30B34208EB000732D8B6FBF3F3BAF8D8
:103A70000A209AF8010008EB0301914288BFA2EBEB
:103A8000080349463A460393FEF778FD0028D9D14A
:103A900094F91420039B002A0CDA206AC01B984278
:103AA00008D2059A92892AB1594602FB0090FEF786
:103AB000B2FE039B059A97895F43A369019A3B4431
:103AC000A361019B1B683B44B9441360F61B90E75C
:103AD000226ABA4218D094F91430002B0BDA9AF803
:103AE000010001235946FEF757FD0028AAD1237D86
:103AF00003F07F0323750598012340783A46594621
:103B0000FEF73CFD00289DD12762059BA1699F8996
:103B1000B1FBF7F307FB13117F1AB74228BF3746F3
:103B2000002FCAD03A4659444846FEF774FEC4E70F
:103B3000072576E7F7B501A90546FEF752FE0446CC
:103B400000283BD12B7D13F0400437D01B060CD549
:103B500001982A6A4078012305F13001FEF71CFD27
:103B600078BB2B7D03F07F032B75FEF7D1FC696AD0
:103B700007460198FEF784FE0446F8B9AE6AF37A68
:103B800043F02003F372AA6828683146FEF7F6FD79
:103B9000E96806F11C00FEF71DFD394606F1160026
:103BA000FEF718FD0198B4740123F474C370FFF795
:103BB0009EF82B7D23F0400304462B75204603B06E
:103BC000F0BD0124FAE713B50446FFF7B3FF48B987
:103BD00001A92046FEF705FE20B92069FEF784FD05
:103BE00000B9206002B010BD30B50E4B5C7A0546BE
:103BF00004F0FF00A4B95C7A18555C7A03EB8404E6
:103C000065605C7A1C4422725A7A541CE4B25C727D
:103C10003A2330324B702F230A708B70C87030BD3E
:103C20000120FCE7FCAA01200022FFF7DDBF000015
:103C30007F2810B506D931B1FF2812D80A4B803839
:103C400033F8100010BD084A32F8024B84428BB2A0
:103C500003D001318029F7D10B4603F18000C0B2B7
:103C6000F0E70020EEE700BF3448000870B51E4BB7
:103C70001E4AB0F5805F28BF1346191D31F8043C79
:103C80000A46ABB1984213D331F8024C250AE6B28A
:103C900053FA84F4A04221DA082D09D8DFE805F0B0
:103CA00005090F11131517191B00C01A31F8100060
:103CB00070BDC31A03F00103C01A80B2F8E71038D0
:103CC000FBE72038F9E73038F7E71A38F5E708302E
:103CD000F3E75038F1E7A0F5E350EEE70431002DAB
:103CE000CCD102EB4603C8E734490008264B000854
:103CF000014B1868704700BF2400002070B50D4DBF
:103D00000D4C641BA4100026A64209D10B4D0C4C8F
:103D100000F08EFC641BA4100026A64205D170BDE5
:103D200055F8043B98470136EEE755F8043B9847B1
:103D30000136F2E7204C0008204C0008204C000817
:103D4000244C000802440346934200D1704703F814
:103D5000011BF9E700B59BB0009104916FF00041A1
:103D60000591029105490391694600F06FF8009BA7
:103D700000221A701BB05DF804FB00BF0802FFFFB1
:103D800013460A46014602480068FFF7E3BF00BF3A
:103D9000240000202DE9F0478E689E4282460C46A2
:103DA00090461F4638D88A8912F4906F32D0256821
:103DB0000969A5EB0109656905EB450505EBD575B5
:103DC00001334B446D109D4238BF1D46530531D51C
:103DD000294600F063FB064650B90C23CAF80030B0
:103DE000A38943F04003A3814FF0FF30BDE8F08783
:103DF00021694A4600F0BEFAA38923F4906343F098
:103E00008003A381266165614E44A5EB0905266008
:103E1000A5603E46BE4200D93E4620683246414635
:103E200000F0B6FAA3689B1BA360236833442360A9
:103E30000020DBE72A4600F0A5FB06460028E1D17A
:103E40002169504600F0BEFAC7E700002DE9F04FA7
:103E500098468B891B069DB007460D4614460ED525
:103E60000B6963B9402100F019FB2860286120B973
:103E70000C233B604FF0FF30D1E040236B61002307
:103E8000099320238DF82930CDF80C803023DFF8FA
:103E9000A8818DF82A304FF0010923469A4613F87D
:103EA000012B0AB1252AF9D1BAEB040B0BD05B46E2
:103EB000224629463846FFF76DFF013000F0AA8000
:103EC000099A5A4409929AF80030002B00F0A28017
:103ED00000234FF0FF32CDE905230AF1010A0493D4
:103EE00007938DF853301A935446052214F8011B9A
:103EF0005148FCF775F9049AD8B9D00644BF20237D
:103F00008DF85330110744BF2B238DF853309AF8A6
:103F100000302A2B15D0079A544600204FF00A0C87
:103F2000214611F8013B303B092B4ED9B0B1079225
:103F300014E0A0EB080309FA03F313430493A24629
:103F4000D2E7039B191D1B680391002BBBBF5B428B
:103F500042F0020207930793B8BF049223782E2BF6
:103F60000CD163782A2B35D1039B1A1D1B68039251
:103F7000002BB8BF4FF0FF3302340593DFF8C8A021
:103F8000217803225046FCF72BF940B14023A0EBE7
:103F90000A0003FA00F0049B03430134049314F86D
:103FA000011B26488DF828100622FCF719F9002875
:103FB00038D0234B1BBB039B073323F00703083385
:103FC0000393099B3344099367E70CFB02320C46C9
:103FD0000120A5E700230134059319464FF00A0C90
:103FE000204610F8012B303A092A03D9002BC5D0FE
:103FF0000591C3E70CFB012104460123F0E703AB65
:1040000000932A460F4B04A93846AFF30080421CA8
:104010000646D6D1AB895B063FF52CAF09981DB09B
:10402000BDE8F08F03AB00932A46064B04A938463F
:1040300000F07AF8EBE700BFE24B0008EC4B000819
:1040400000000000953D0008E84B00082DE9F0470E
:10405000164699468A680B69DDF820809342B8BFFE
:104060001346336091F8432007460C460AB10133EA
:1040700033602368990642BF336802333360256892
:1040800015F0060506D104F1190AE36832689B1A97
:10409000AB4226DC94F84320131E226818BF01238C
:1040A00092062BD404F1430249463846C0470130FA
:1040B0001ED02368E568326803F00603042B08BFAE
:1040C000AD1AA36822690CBF25EAE5750025934265
:1040D000C4BF9B1AED1800261A34B5421AD100202D
:1040E00008E00123524649463846C047013003D113
:1040F0004FF0FF30BDE8F0870135C6E7E1185A1CE4
:10410000302081F84300224494F8451082F843108F
:104110000233C7E70123224649463846C0470130EB
:10412000E6D00136D9E700002DE9FF470F7E0C9D50
:10413000782F914680460C469A4601F1430207D8F3
:10414000622F0AD8002F00F0D880582F00F0A380EB
:1041500004F1420584F842703AE0A7F16303152B9D
:10416000F6D801A151F823F0C1410008D54100085B
:1041700051410008514100085141000851410008D7
:10418000D541000851410008514100085141000843
:1041900051410008E142000805420008C3420008FE
:1041A00051410008514100080343000851410008F3
:1041B000054200085141000851410008CB42000867
:1041C0002B681A1D1B682A6004F1420584F84230EE
:1041D0000123A3E020682968060601F104030AD53B
:1041E0000E682B60002E03DA2D23764284F84330CC
:1041F0005E480A2319E00E682B6010F0400F18BFCC
:1042000036B2EFE72B682068191D2960010601D539
:104210001E6802E04606FBD51E8854486F2F0CBF6F
:1042200008230A23002184F843106568A560002D47
:10423000A2BF216821F0040121600EB9002D4DD0EC
:104240001546B6FBF3F103FB1167C75D05F8017D69
:104250003746BB420E46F4D9082B0BD12368DE0744
:1042600008D5236961689942DEBF302305F8013C17
:1042700005F1FF35521B2261CDF800A04B4603AA81
:1042800021464046FFF7E2FE01304CD14FF0FF30AF
:1042900004B0BDE8F087354881F845702968236887
:1042A00051F8046B29601D0614D5DF0744BF43F0A5
:1042B000200323601EB9236823F02003236010230A
:1042C000B0E7236843F0200323607823284884F86C
:1042D0004530E3E7590648BFB6B2E6E71546BBE707
:1042E0002B6826686169181D286035061B6801D592
:1042F000196002E07006FBD5198000232361154682
:10430000BAE72B681A1D2A601D68626800212846DA
:10431000FBF766FF08B1401B606063682361002300
:1043200084F84330A8E723692A4649464046D047E7
:104330000130ABD023689B0713D4E068039B9842FD
:10434000B8BF1846A4E70123324649464046D04745
:1043500001309BD00135E36803995B1AAB42F2DC74
:10436000EBE7002504F11906F5E700BFF34B000861
:10437000044C00080A44914200F1FF3300D1704719
:1043800010B511F8014B03F8014F9142F9D110BD5E
:10439000884210B501EB020402D98442234607D8B3
:1043A000431EA14208D011F8012B03F8012FF8E7B2
:1043B000024401468A4200D110BD13F8014D02F8B3
:1043C000014DF7E737B5002944D051F8043C01907E
:1043D000002BA1F10404B8BFE41800F013F91E4A41
:1043E0000198136833B96360146003B0BDE83040CE
:1043F00000F00EB9A34208D9256861198B4201BFAC
:1044000019685B6849192160EDE71A465B680BB1D2
:10441000A342FAD911685518A5420BD1246821444A
:104420005418A3421160E0D11C685B6853602144BA
:104430001160DAE702D90C230360D6E72568611919
:104440008B4204BF19685B68636004BF491921602F
:104450005460CAE703B030BD08AB012070B50E4E02
:104460000C463168054611B900F0BCF830602146B1
:10447000284600F0B7F8431C0AD0C41C24F00304FB
:10448000A04207D0211A284600F0ACF8013001D133
:104490004FF0FF34204670BD0CAB01202DE9F041F8
:1044A000CD1C25F0030508350C2D38BF0C25002D3B
:1044B000074601DBA94205D90C233B6000263046A4
:1044C000BDE8F0812E4E00F09DF833681C4634BBE9
:1044D00029463846FFF7C2FF431C04464DD13468D5
:1044E0002646002E40D123683146384604EB0308A7
:1044F00000F078F880453AD1216803356D1A25F02F
:10450000030508350C2D38BF0C2529463846FFF722
:10451000A5FF01302BD023682B4423600EE02268D6
:10452000521B1ED40B2A16D96119A342256018BF4D
:104530005960636808BF316062514B60384604F1CE
:104540000B0600F065F826F00706231DF21AB6D018
:104550009B1BA350B3E76268A3420CBF32605A6052
:10456000ECE723466468B2E734467668B9E70C2383
:104570003B60384600F04CF8A1E72560DEE700BF5D
:1045800008AB01202DE9F041804614460E4621B9C2
:10459000BDE8F0411146FFF781BF2AB9FFF712FFCE
:1045A00025462846BDE8F08100F038F884420746E9
:1045B00002D8B4EB500F12D821464046FFF76EFFE9
:1045C00005460028EDD0BC422246314628BF3A4677
:1045D000FFF7D0FE31464046FFF7F4FEE1E73546EF
:1045E000DFE7000038B5064D0023044608462B607F
:1045F000FCF798FD431C02D12B6803B1236038BD42
:1046000010AB0120014800F011B800BF14AB01202D
:10461000014800F00CB800BF14AB012051F8043C75
:10462000181F002BBCBF0B58C0187047704770474D
:10463000F8B500BFF8BC08BC9E467047F8B500BF8F
:08464000F8BC08BC9E4670475F
:10464800424C204445425547204D53473A20436148
:104658006C6C656420626F6F746C6F616465725F07
:104668006A756D705F746F5F757365725F61707086
:104678006C69636174696F6E2829200A00424C20B6
:104688004445425547204D53473A204D53502056F4
:10469800616C75653A20252378200A00424C204435
:1046A80045425547204D53473A205265736574205B
:1046B80056616C75653A20252378200A004E5357B9
:1046C8002E62696E00424C204445425547204D45B4
:1046D80053473A207468657265206973206E657760
:1046E80020736F66747761726520627574206974CF
:1046F8002069732064616D616765640D0A00424C2E
:10470800204445425547204D4553473A2042757449
:10471800746F6E20697320707265737365642061AD
:104728006E6420676F696E6720746F20626F6F74A4
:104738006C6F616465720D0A00424C204445425515
:1047480047204D4553473A20427574746F6E20696F
:1047580073206E6F74207072657373656420616E68
:104768006420657865637574696E67207573657212
:10477800206170700D0A00000000000000000001B8
:1047880002030406070809000000000102030422CE
:104798002A3A3C3E3F7C7F002B2C3B3D5B5D00432F
:1047A80055454141414143454545494949414145AF
:1047B80092924F4F4F5555594F554F9C4F9E9F4181
:1047C800494F55A5A5A6A7A8A9AAABACADAEAFB051
:1047D800B1B2B3B4414141B8B9BABBBCBDBEBFC0A8
:1047E800C1C2C3C4C54141C8C9CACBCCCDCECFD143
:1047F800D145454549494949D9DADBDCDD49DF4F2F
:10480800E14F4F4F4FE6E8E85555555959EEEFF04F
:10481800F1F2F3F4F5F6F7F8F9FAFBFCFDFEFF0107
:10482800030507090E10121416181C1EC700FC00F9
:10483800E900E200E400E000E500E700EA00EB0040
:10484800E800EF00EE00EC00C400C500C900E60077
:10485800C600F400F600F200FB00F900FF00D600E5
:10486800DC00F800A300D800D7009201E100ED00B9
:10487800F300FA00F100D100AA00BA00BF00AE00B0
:10488800AC00BD00BC00A100AB00BB009125922587
:10489800932502252425C100C200C000A900632574
:1048A800512557255D25A200A5001025142534257E
:1048B8002C251C2500253C25E300C3005A2554253A
:1048C80069256625602550256C25A400F000D000D8
:1048D800CA00CB00C8003101CD00CE00CF0018259A
:1048E8000C2588258425A600CC008025D300DF0070
:1048F800D400D200F500D500B500FE00DE00DA00D5
:10490800DB00D900FD00DD00AF00B400AD00B10050
:104918001720BE00B600A700F700B800B000A80036
:10492800B700B900B300B200A025A00061001A03C7
:10493800E0001703F8000703FF00010078010001F9
:10494800300132010601390110014A012E017901B5
:10495800060180014D004302810182018201840128
:10496800840186018701870189018A018B018B01F6
:104978008D018E018F0190019101910193019401A4
:10498800F60196019701980198013D029B019C014F
:104998009D0120029F01A001A001A201A201A40182
:1049A800A401A601A701A701A901AA01AB01AC01B5
:1049B800AC01AE01AF01AF01B101B201B301B30166
:1049C800B501B501B701B801B801BA01BB01BC0115
:1049D800BC01BE01F701C001C101C201C301C4018C
:1049E800C501C401C701C801C701CA01CB01CA0179
:1049F800CD011001DD0101008E01DE011201F3017C
:104A08000300F101F401F401F80128012202120166
:104A18003A020900652C3B023B023D02662C3F022C
:104A280040024102410246020A015302400081014C
:104A38008601550289018A0158028F015A029001A4
:104A48005C025D025E025F029301610262029401F0
:104A58006402650266026702970196016A02622C87
:104A68006C026D026E029C01700271029D0173025C
:104A780074029F0176027702780279027A027B0239
:104A88007C02642C7E027F02A60181028202A901B7
:104A98008402850286028702AE014402B101B20196
:104AA80045028D028E028F0290029102B7017B03AC
:104AB8000300FD03FE03FF03AC0304008603880321
:104AC80089038A03B1031103C2030200A303A303EA
:104AD800C4030803CC0303008C038E038F03D8039D
:104AE8001801F2030A00F903F303F403F503F603CC
:104AF800F703F703F903FA03FA0330042003500419
:104B08001007600422018A043601C1040E01CF0493
:104B18000100C004D00444016105260400007D1D85
:104B28000100632C001E9601A01E5A01001F0806F2
:104B3800101F0606201F0806301F0806401F06061D
:104B4800511F0700591F521F5B1F541F5D1F561F1F
:104B58005F1F601F0806701F0E00BA1FBB1FC81F0B
:104B6800C91FCA1FCB1FDA1FDB1FF81FF91FEA1F57
:104B7800EB1FFA1FFB1F801F0806901F0806A01FC7
:104B88000806B01F0400B81FB91FB21FBC1FCC1FF6
:104B98000100C31FD01F0206E01F0206E51F010027
:104BA800EC1FF21F0100FC1F4E2101003221702171
:104BB8001002842101008321D0241A05302C2F04EF
:104BC800602C0201672C0601752C0201802C6401FF
:104BD800002D260841FF1A030000232D302B20004A
:104BE800686C4C006566674546470030313233349F
:104BF800353637383941424344454600303132333F
:104C08003435363738396162636465660000000000
:084C180098B6FF7F01000000C7
:044C2000B5010008D2
:044C240091010008F2
:104C2800010000000024F400010000001000000052
:104C3800152500081F250008292500083325000828
:104C48003D250008280000200000000000000000AA
:104C5800000000000000000000000000000000004C
:104C6800000000000000000000000000000000003C
:104C7800000000000000000000000000000000002C
:104C8800000000000000000000000000000000001C
:104C9800000000000000000000000000000000000C
:084CA800000000000000000004
:040000050800117965
:00000001FF
